10004AV BARTOLOMEU MITRE 119                                002220220193001201914:01JOAO DOMINGOS DE OLIVEIRA     ZELADOR             01041988000006:0011:0012:4015:0001022019020320192017/201800         00000000                                             2198034515504370504000154
10004AV BARTOLOMEU MITRE 119                                020270220193001201914:01FRANCISCO SOARES DA COSTA     VIGIA               12092000010122:0001:0002:0005:2001082018300820182016/2017012017/201812082019                                             2199468722404370504000154
10004AV BARTOLOMEU MITRE 119                                020320220193001201914:01ROBERTO DE ANDRADE SOUSA      ZELADOR             01112007000011:0015:0016:4020:0001092018300920182016/2017012017/201801102019robertoandrade0220@gmail.com                 2199896580804370504000154
10004AV BARTOLOMEU MITRE 119                                020330220193001201914:01NILTON PEREIRA DA SILVA       ZELADOR FOLGUISTA   17012019000009:0013:0014:0017:200000000000000000         00         00000000niltonpereira1974@outlook.com                2197365398604370504000154
10009RAIKEL                                                 001040220193001201914:01JOSE NIVALDO FERREIRA DE ARAUJPORTEIRO            01101989000007:3011:3012:3015:5003092018021020182016/2017012017/201801092019                                             2198194246830123855000170
10010BARAO DE CAMETA                                        001100220193001201914:01VALDECI CORDEIRO              PORTEIRO            14081990000108:0012:0013:0016:2001072018300720182016/2017012017/201814072019valdecicordeiro535@gmail.com                 2198649054439077896000142
10014A J WROBEL                                             001250220193001201914:01JOSE COELHO DO NASCIMENTO     PORTEIRO            19061987000010:3014:3017:4021:0001052018300520182016/2017012017/201819052019                                             9999999999939078423000160
10014A J WROBEL                                             020060220193001201914:01FABIO ALVES PEREIRA           ZELADOR             04062012000006:3010:3014:3017:4001082018300820182017/201800         00000000fabio.mp99@gmail.com                         2199301671439078423000160
10014A J WROBEL                                             020070220193001201914:01JOSE DAILSON CARNEIRO         VIGIA NOTURNO       20102017000022:0000:0001:0005:200000000000000000         012017/201801092019dailson.carneiro99@gmail.com                 2196695476239078423000160
10016CACERES                                                020030220193001201914:01JOSE PEREIRA DA SILVA         ZELADOR             01032001000008:0012:0014:0017:2025062018240720182017/201800         00000000josepereira.rj67@gmail.com                   2198073917303716464000197
10018SAINT MICHEL                                           020160220193001201914:01EVANIO FERREIRA DA SILVA      PORTEIRO CHEFE      04032010000012:0015:2018:0022:0012052018310520182017/201800         00000000evanioferreiradasilvaferreira@gmail.com      2197992197929274321000166
10018SAINT MICHEL                                           020180220193001201914:01RIVALDO GENUINO MATIAS        ZELADOR             13072011000008:4012:0014:0018:0001062018300620182016/2017012017/201801062019rivaldomatias628@gmail.com                   2199827623429274321000166
10018SAINT MICHEL                                           020200220193001201914:01FRANCISCO DE ASSIS DA COSTA   VIGIA NOTURNO       02022015010122:0001:0002:0005:2001012019300120192017/2018012018/201902012020franciscoassiscostacosta7138@gmail.com       2196532857329274321000166
10018SAINT MICHEL                                           020220220193001201914:01JOSE ALDO EZEQUIEL DA SILVA JUZELADOR             25062018000006:0010:0012:0015:200000000000000000         00         00000000aldinhodamaldade@hotmail.com                 2198172918929274321000166
10022ANDES                                                  020340220193001201914:01IVANILDO DE SOUZA SILVA       PORTEIRO            01062009000206:0011:0012:0014:2010012019250120192017/201800         00000000ivanildo-ssilva-25@gmail.com                 2197520531539078381000167
10022ANDES                                                  020390220193001201914:01JOSE ROBERTO BENTO FLOR       VIGIA NOTURNO       01052011010122:0001:0002:0005:2001012018300120182016/2017012017/201801042019                                             2197180169739078381000167
10022ANDES                                                  020420220193001201914:01FRANCISCO TORRES ARAUJO       PORTEIRO            01022016000006:0010:0011:0014:2001072018300720182017/2018012018/201901012020edimartorrests75@yahoo.com                   2197905439639078381000167
10022ANDES                                                  020430220193001201914:01MARCELO CAMPOS DO NASCIMENTO  FAXINEIRO           19122018010108:0012:0013:0016:200000000000000000         00         00000000marceloca,ámposs56@gmail.com                 2197580851339078381000167
10022ANDES                                                  020440220193001201914:01GERSON DOS SANTOS SILVA       PORTEIRO FOLGUISTA  02012019000009:0012:0013:0017:200000000000000000         00         00000000gersonfilho998@gmail.com                     2199360467039078381000167
10030TRUDA                                                  002460220193001201914:01MANOEL RODRIGUES DA SILVA     VIGIA NOTURNO       06041995000022:0001:0002:0005:2001032018300320182016/2017012017/201806032019                                             0000000000073754681000157
10030TRUDA                                                  030050220193001201914:01JOSE GRANGEIRO FILHO          PORTEIRO CHEFE      01042001000014:0017:0018:0022:0002012019310120192017/201800         00000000                                             2197949548473754681000157
10030TRUDA                                                  030060220193001201914:01JOSE MARCOS GRANGEIRO         AUX PORTARIA        01032003000106:0010:0011:0014:2001072018300720182017/201800         00000000                                             2198232408473754681000157
10030TRUDA                                                  030070220193001201914:01IRAQUITAN LUCENA SILVA        FAXINEIRO           01032003000007:0011:0012:0015:2001102018301020182017/201800         00000000                                             2198018398673754681000157
10035TOLOMEI                                                001090220193001201914:01ELIZEU GERALDO DOS SANTOS     PORTEIRO            01031991000007:0012:0014:0016:2001012019300120192017/201800         00000000                                             2199468042801805049000184
10040WONDERLAND                                             001910220193001201914:01RAIMUNDO GOMES SILVA          VIGIA NOTURNO       01081995000122:0001:0002:0005:2009072018280720182016/2017012017/201801072019gathaccpp@gmail.com                          2199159558828991909000178
10040WONDERLAND                                             020040220193001201914:01DENILSON AGOSTINHO BEZERRA    PORTEIRO            01021999000007:0011:0013:0016:2001012019300120192017/2018012018/201901012020                                             2198386910928991909000178
10040WONDERLAND                                             020100220193001201914:01CRISTIANO FRANCISCO DA SILVA  PORTEIRO            01032004000007:0011:0013:0016:2028012019260220192017/201800         00000000                                             2198237337028991909000178
10040WONDERLAND                                             020150220193001201914:01MARCIO SILVA SOARES DA CRUZ   FAXINEIRO           10022009010107:0011:0012:0015:2011092018300920182017/2018012018/201910012020                                             2196957803828991909000178
10040WONDERLAND                                             020180220193001201914:01JOAS EPIFANIO DA SILVA        FAXINEIRO           19062017010107:0012:0013:0015:200000000000000000         012017/201819052019                                             2198188281928991909000178
10043EDWIGES                                                010370220193001201914:01JOSE NEVES DA CRUZ            PORTEIRO            08052006010107:0012:0015:0017:2008042018070520182016/2017012017/201808042019                                             2198855953803480419000186
10047CRISTIANA I                                            001100220193001201914:01DAVID PAULINO DE ARAUJO       PORTEIRO            06081986000007:0012:0016:0018:2001072018300720182016/2017012017/201806072019                                             0000000000001842073000193
10051ARPANEMA                                               020150220193001201914:01ALOISIO DE MACEDO VISGUEIRA   PORTEIRO            23101999000207:0011:0012:0015:2001042018300420182016/2017012017/201801092019aloisiomvisgueira@gmail.com                  2197135590800279120000170
10051ARPANEMA                                               020230220193001201914:01JOAO ROSA FRANCISCO           AUX PORTARIA        01052004000213:4017:0018:0022:0001082018300820182017/201800         00000000larissa_lima@hotmail.com                     2197995680500279120000170
10051ARPANEMA                                               020280220193001201914:01INACIO BARRETO DE FARIAS      FAXINEIRO           01122008010207:4012:0014:0017:0001022018020320182016/2017012017/201801112019inaciobarreto2012@gmail.com                  2196909653100279120000170
10058JEFFERSON                                              002120220193001201914:01ANTONIO MANOEL BARBOZA GALVAO PORTEIRO            12091989000008:0012:0016:0019:2001072018200720182016/2017012017/201812082019antoniomanoelbarbosagalvao@gmail.com         2198931963239133764000190
10058JEFFERSON                                              020230220193001201914:01JOAO SEVERINO NASCIMENTO DE ANZELADOR             05122001000006:0011:0012:0014:2001102018301020182017/201800         00000000                                             2196925887839133764000190
10058JEFFERSON                                              020240220193001201914:01FRANCISCO ANTONIO XIMENES FREIVIGIA NOTURNO       01032006000022:0001:0002:0005:2028012019160220192017/201800         00000000                                             0000000000039133764000190
10066BORLIDO                                                002180220193001201914:01HELIO ALVES MARTINS           PORTEIRO CHEFE      01021992000006:0011:0012:4015:0011102018301020182017/2018012018/201901012020heliomartin528@gmail.com                     2197932914939122882000101
10066BORLIDO                                                020240220193001201914:01JOAO BATISTA DA SILVA PALMEIRAZELADOR             10052000000011:0015:0016:4020:0011082018300820182017/201800         00000000a6549412@gmail.com                           2195904304039122882000101
10066BORLIDO                                                020250220193001201914:01MANOEL ABDIAS DE QUEIROZ      VIGIA NOTURNO       01122001000022:0001:0002:0005:2022012019200220192017/201800         00000000manuht2380@gmail.com                         2198009117339122882000101
10066BORLIDO                                                020290220193001201914:01JAELSON ANSELMO DA SILVA      ZELADOR             01022016000009:0013:0014:0017:2001032018300320182017/2018012018/201901012020ts440879@gmail.com                           2196587786439122882000101
10067RIO CARIOCA                                            001200220193001201914:01ANTONIO PIO NUNES             VIGIA NOTURNO       01021985000022:0001:0002:0005:2001062018300620182017/2018012018/201901012020                                             2198231344301388723000172
10067RIO CARIOCA                                            001460220193001201914:01ADILSON SALES                 PORTEIRO            13011991000006:0011:0012:0014:2001022018020320182017/2018012018/201913122019                                             2199111551801388723000172
10067RIO CARIOCA                                            020040220193001201914:01JOSE GERLANDE SOUZA DA SILVA  ZELADOR             01042000010207:0011:0012:0015:2002012019310120192017/201800         00000000                                             2198190711701388723000172
10067RIO CARIOCA                                            020160220193001201914:01JUVENILSON BEZERRA DA SILVA   ZELADOR             01052014010107:0011:0012:0015:2001082018300820182017/201800         00000000                                             2198031697201388723000172
10067RIO CARIOCA                                            020170220193001201914:01JOSE PAULO SILVA DOS SANTOS   PORTEIRO            01082015000013:4018:0019:0022:0011052018300520182016/2017012017/201801072019                                             2198754097001388723000172
10070FRANCO HARA                                            020020220193001201914:01JOSE MARCOS DE ARAUJO         PORTEIRO            01052002000012:4016:0017:0021:0002012019310120192017/201800         00000000                                             2197968557739133699000101
10070FRANCO HARA                                            020090220193001201914:01EDMILSON PEREIRA DA SILVA     FAXINEIRO           01032017000007:0012:0013:0015:2015052018130620182017/201800         00000000pereiraedmilsonsilva2017@gmail.com           2199043661239133699000101
10075OYAPOCK                                                010290220193001201914:01PAULO SERGIO MACIEL DE SOUZA  FAXINEIRO           01062004010107:0012:0013:0015:2001022018020320182016/2017012017/201801052019paulomaciel5584@gmail.com                    2198088259839077839000163
10077TAPUIA                                                 002040220193001201914:01EDNALDO CAVALCANTE FREIRE DA SZELADOR             01081990000009:0012:0015:0019:2011062018300620182016/2017012017/201801072019juuhcavalcante@yahoo.com.br                  2198099728301687965000167
10082RIO DO SUL                                             010470220193001201914:01OTO ROBERTO DO NASCIMENTO     ZELADOR             03062001000106:3011:3012:3014:5001032018300320182016/2017012017/201803052019                                             0000000000001864331000132
10082RIO DO SUL                                             020030220193001201914:01JOAO VIEIRA DE SOUZA          ZELADOR             18012005000314:5017:0018:0523:0002072018310720182017/2018012018/201918122019                                             0099999999901864331000132
10082RIO DO SUL                                             020080220193001201914:01LUIZ DE MATTOS                FOLGUISTA           03122010000007:0011:0012:0015:2001102018301020182016/2017012017/201801112019                                             2199059160901864331000132
10083QUINTA DOS OITIS                                       010260220193001201914:01ROMILSON CASTELO SILVA        ZELADOR             13091999000107:0011:2013:0016:0002012019310120192017/201800         00000000romilsonluciana76@gnmail.com                 2198643741701687444000100
10085BENJAMIN                                               030350220193001201914:01REGINALDO SANTOS DE MELLO     PORTEIRO            01052006000107:0011:0012:0015:2001052018300520182017/201800         00000000reginaldomello878@gmail.com                  2198318510068555432000100
10085BENJAMIN                                               030360220193001201914:01ANTONIO DOMINGOS DE ARAUJO    ZELADOR             01072007000206:0010:0011:0014:2001082018300820182017/201800         00000000francisconunes1996@hotmail.com               2199088113268555432000100
10085BENJAMIN                                               030380220193001201914:01JOSE ANTONIO DA SILVA         ZELADOR             01092008000007:0011:0012:0015:2001012019300120192017/201800         00000000jose.antonio01717@gmail.com                  2196992848368555432000100
10088VERDE MAR II                                           001100220193001201914:01FRANCISCO DAS CHAGAS MACEDO ALPORTEIRO            01031987000011:0014:0017:2021:4001072018300720182017/201800         00000000999999999999                                 2198292393540231839000155
10088VERDE MAR II                                           020420220193001201914:01LUCIANO ARAUJO DA COSTA       AUX PORTARIA        20092006000007:0011:0012:0015:2001102017301020172016/2017012017/201820082019lucianoaraujo2000@gmail.com                  2198855506340231839000155
10089ADRIANA                                                010080220193001201914:01JOSE ROBERTO DE SOUSA         ZELADOR             01042012000008:0012:0013:0016:2001032018300320182016/2017012017/201801032019                                             2198089633807156186000111
10094SAO FRANCISCO                                          003090220193001201914:01ANTONIO PROFIRO DO NASCIMENTO PORTEIRO CHEFE      01021992000006:0010:0011:0014:2001072018300720182017/2018012018/201901012020                                             2199172230639126818000190
10094SAO FRANCISCO                                          030460220193001201914:01JOSE IVANICIO ALVES DE OLIVEIRZELADOR             25082010000013:4016:0017:0022:0001062018300620182016/2017012017/201825072019                                             2198084065639126818000190
10094SAO FRANCISCO                                          030490220193001201914:01JOAO CARLOS DE JESUS SALES    ZELADOR             01012013010113:4017:0018:0022:0011102018301020182017/2017012018/201901122019                                             2198057818739126818000190
10094SAO FRANCISCO                                          030500220193001201914:01GILIARD JESUS DA SILVA        ZELADOR             25012018000108:0012:0014:0017:200000000000000000         012018/201925122019giliard_oficial@hotmail.com                  2199880141339126818000190
10094SAO FRANCISCO                                          040080220193001201914:01JUAN PABLO DA ROCHA VIANNA DE VIGIA               03042017010222:0001:0002:0005:2011112018301120182017/201800         00000000                                             2196925070139126818000190
10098ESTHER                                                 010260220193001201914:01NIVALDO GERVAZIO CAVALCANTE   PORTEIRO            12022001000006:0010:0011:0014:2001062018300620182017/2018012018/201912012020                                             2196709536701749693000182
10098ESTHER                                                 010270220193001201914:01SEVERINO GERVAZIO NUNES FILHO FAXINEIRO           12092011000013:4018:0019:0022:0001022018020320182016/2017012017/201812082019                                             2198252326301749693000182
10103RESIDENCIAL AMERICA SOARES                             010310220193001201914:01JOSIAS BRAGA ACIOLY           ZELADOR             01022009010208:0012:0013:4017:0001092018300920182017/201800         00000000                                             2198929103639092234000141
10104SOLAR PRINCIPE RODRIGO                                 020360220193001201914:01JOAO ROBERTO DA SILVA         FAXINEIRO           01072005000007:0011:0013:0016:2001042018300420182016/2017012017/201801062019                                             2196588091339133590000166
10104SOLAR PRINCIPE RODRIGO                                 020390220193001201914:01EDMILSON PEREIRA DAS NEVES    ZELADOR             06102007000209:0013:0016:4020:0001092018300920182016/2017012017/201801092019                                             2199562904839133590000166
10104SOLAR PRINCIPE RODRIGO                                 020490220193001201914:01ERLANIO DOS SANTOS VICENTE    VIGIA NOTURNO       01052013010122:0001:0002:0005:2011062018300620182017/201800         00000000                                             2197634572739133590000166
10104SOLAR PRINCIPE RODRIGO                                 030040220193001201914:01DOMINGOS CLEMENTINO DOS SANTOSPORTEIRO            01112018000006:0011:0012:0014:200000000000000000         00         00000000                                             2198077912239133590000166
10108NELSON                                                 002160220193001201914:01ANTONIO ONOFRE DE PAIVA       ZELADOR             02101986000008:0012:0013:2016:400000000000000000         012017/201801092019                                             2198136234239082334000197
10126SA FERREIRA                                            020400220193001201914:01ROBERTO DO NASCIMENTO SOUZA   VIGIA               01052006000122:0001:0002:0005:2002012019310120192017/201800         00000000                                             0000000000073291965000154
10126SA FERREIRA                                            020410220193001201914:01EUDES CRESSIO LUIZ DA FONSECA PORTEIRO            07082006010113:4017:0018:0022:0001062018300620182016/2017012017/201807072019                                             0000000000073291965000154
10126SA FERREIRA                                            020430220193001201914:01WANDERSON BARBOSA DA SILVA    PORTEIRO            09112012010106:0011:0012:0014:2011102018301020182016/2017012017/201809102019                                             0000000000073291965000154
10126SA FERREIRA                                            020440220193001201914:01FLAVIO VALDIVINO DA SILVA     FOLGUISTA           01052017000007:0011:0012:0015:200000000000000000         012017/201801042019                                             0000000000073291965000154
10136NINHO DAS AGUIAS                                       001460220193001201914:01ABIDIAS MESSIAS DE SOUZA      VIGIA NOTURNO       03041981000022:0002:0003:0005:2015022019160320192017/201800         00000000                                             9999999999939125307000154
10136NINHO DAS AGUIAS                                       002150220193001201914:01JOSE RODRIGUES JUNIOR         PORTEIRO            19081991000010:0014:0018:0021:2001072017300720172015/2016022016/201719072019                                             2197900085939125307000154
10136NINHO DAS AGUIAS                                       020270220193001201914:01JOSIMAR PEREIRA DOS SANTOS    ZELADOR             01022012010106:0010:0014:0017:2001062018300620182017/2018012018/201901012020josemarp200@hotmail.com                      2198391746339125307000154
10136NINHO DAS AGUIAS                                       020330220193001201914:01MARCUS VINICIUS DO ESPIRITO SAZELADOR             09092016000108:0012:0014:0017:2001042018300420182016/2017012017/201809082019marcusviarisanto@hotmail.com                 2199415184139125307000154
10146PATRICK                                                030140220193001201914:01JOSINALDO DIAS ALVES          VIGIA NOTURNO       01052000000022:0001:0002:0005:2009022018280220182016/2017012017/201801042019                                             2198545740839419684000104
10146PATRICK                                                030250220193001201914:01JOAO FERNANDES NETO           PORTEIRO CHEFE      01042005000014:2016:0017:0022:0001032018300320182016/2017012017/201801032019joaoelucia95@gmail.com                       2199330420339419684000104
10146PATRICK                                                030290220193001201914:01EDINIZIO DO NASCIMENTO SOARES PORTEIRO            01032007000005:2010:0011:0013:4001012019300120192017/201800         00000000deniosoares33@gmail.com                      2198282092239419684000104
10146PATRICK                                                030410220193001201914:01SEBASTIAO VINICIUS SILVA HORA ZELADOR             13092017000008:0012:0014:0017:2011102018301020182017/201800         00000000sebastiaosilvahora@gmail.com                 2197472748839419684000104
10146PATRICK                                                030420220193001201914:01ANDERSON GONZAGA DA SILVA     ZELADOR             11102017000008:0012:0014:0017:2011112018301120182017/201800         00000000                                             2199311143039419684000104
10146PATRICK                                                030460220193001201914:01MAURICIO RODRIGUES DA SILVA   ZELADOR             05102018010108:0012:0014:0017:200000000000000000         00         00000000mauricioebernardo26@gmail.com                2197545959439419684000104
10147RIO SOL                                                001310220193001201914:01FRANCISCO MOACIR MARTINS      ZELADOR             01121994000113:4017:0018:0022:0002052018310520182016/2017012017/201801112019                                             2199153841001764999000108
10147RIO SOL                                                001320220193001201914:01JOSE PATINO NOBRE             VIGIA NOTURNO       01061995000022:0001:0002:0005:2001012018300120182016/2017012017/201801052019patinojose993@gmail.com                      5598182741101764999000108
10147RIO SOL                                                010330220193001201914:01ADEMIR ANTONIO DE SOUZA       PORTEIRO            01102001000007:0011:0013:0016:2001042018300420182016/2017012017/201801092019                                             2199995340801764999000108
10147RIO SOL                                                010340220193001201914:01JOSE EDVANDO RODRIGUES DE CASTZELADOR             01102001000007:0011:0012:0015:2001062018300620182016/2017012017/201801092019                                             2198240349701764999000108
10152ITAYA                                                  002200220193001201914:01SEBASTIAO SOUSA ARAUJO        ZELADOR             10041993000008:0012:0016:0019:2011012019300120192017/201800         00000000                                             2196919228028992287000100
10152ITAYA                                                  020390220193001201914:01ALEXANDER DE MELO ALVES       ZELADOR             02082004000207:0011:0012:0015:2011072018300720182016/2017012017/201802072019alexanderdma9@gmail.com                      2197554059828992287000100
10152ITAYA                                                  030050220193001201914:01IVANILDO GOMES DA SILVA       VIGIA NOTURNO       01072014000222:0001:0003:0010:0002012019310120192017/201800         00000000                                             2198070477528992287000100
10152ITAYA                                                  030090220193001201914:01ADRIANO LOURENCO              ZELADOR             01112016000022:0001:0003:0010:0011102018301020182016/2017012017/201801102019                                             0000000000028992287000100
10152ITAYA                                                  030110220193001201914:01REGINALDO RODRIGUES DA SILVA  ZELADOR             17122018000013:4018:4019:4022:000000000000000000         00         00000000naldinho9050@gmail.com                       2198058404928992287000100
10156ROSANA                                                 001230220193001201914:01MARCELO ROCHA PORTO           PORTEIRO CHEFE      04031989000111:0014:0017:0021:2003012019010220192017/201800         00000000                                             0000000000040247082000198
10156ROSANA                                                 010470220193001201914:01JOSE FERREIRA DA ROCHA        VIGIA NOTURNO       05032002000122:0001:0002:0005:2001112018301120182017/201800         00000000                                             0000000000040247082000198
10156ROSANA                                                 010490220193001201914:01ROSINALDO LUNA DE ALMEIDA     ZELADOR             01042003000106:0011:0014:0016:2006022019070320192017/201800         00000000                                             0000000000040247082000198
10156ROSANA                                                 010520220193001201914:01CLEMILSON SOUSA CARVALHO      ZELADOR             11072018000109:0013:0014:0017:200000000000000000         00         00000000clemilson.kr@gmail.com                       2196453313140247082000198
10157RUA JOANA ANGELICA                                     010180220193001201914:01PEDRO FRANCO DA SILVA         PORTEIRO            06072006010107:0012:0015:0017:2001022019020320192017/201800         00000000pedrofrancoporteiro@gmail.com                2197362308539081435000143
10158APOEMA                                                 002090220193001201914:01ARLINDO DE SOUZA OLIVEIRA     VIGIA NOTURNO       15071983000022:0001:0002:0005:2001012018300120182016/2017012017/201801062019                                             2198314246139123740000150
10158APOEMA                                                 010300220193001201914:01ANTONIO ARAUJO DE OLIVEIRA    PORTEIRO CHEFE      01072009000009:0013:0016:4020:0001062018300620182016/2017012017/201801062019                                             2196571251239123740000150
10158APOEMA                                                 030360220193001201914:01ROMUALDO BENTO DA SILVA       ZELADOR             18062012010110:4014:4015:4019:0011072018300720182017/201800         00000000                                             2196960023739123740000150
10158APOEMA                                                 030380220193001201914:01MARCOS GRACILIANO CALISTO     ZELADOR             01102016010107:0011:0012:0015:2001032018300320182016/2017012017/201801092019                                             2196589898739123740000150
10158APOEMA                                                 030390220193001201914:01VERA LUCIA OLIVEIRA DO CARMO  FAXINEIRO           01092017000007:0012:0013:0015:200000000000000000         012017/201801082019                                             2196805546539123740000150
10158APOEMA                                                 030400220193001201914:01MARCOS ANTONIO AZEVEDO DE OLIVFAXINEIRO           01092018000008:0013:0014:0016:200000000000000000         00         00000000marcosazevedo240@gmail.com                   2198164979839123740000150
10159SOBERANO                                               002150220193001201914:01SEVERINO AUGUSTO TRINDADE     PORTEIRO            01101988000013:4016:0017:0022:0001052018300520182016/2017012017/201801092019                                             2198239518339127212000170
10159SOBERANO                                               030070220193001201914:01GILSON RENATO DA SILVA        PORTEIRO CHEFE      01072002010106:0011:0012:0014:2001072018300720182017/201800         00000000                                             2197358232739127212000170
10159SOBERANO                                               030380220193001201914:01MARCOS VINICIO DE OLIVEIRA    VIGIA NOTURNO       24042012010322:0001:0002:0005:2001022019020320192017/201800         00000000                                             2198154912539127212000170
10159SOBERANO                                               030490220193001201914:01SEVERINO GUEDES DA ROCHA      FOLGUISTA           09032015000013:4016:0017:0022:0001042018300420182017/201800         00000000severinoguedesrocha@gmail.com                2197908682639127212000170
10159SOBERANO                                               030500220193001201914:01JOSE FERREIRA DE ARAUJO       GARAGISTA           01022016000007:0011:0012:0015:2001122018301220182017/2018012018/201901012020                                             2196859973539127212000170
10159SOBERANO                                               030510220193001201914:01LEANDRO PEREIRA               GARAGISTA           02022017000006:0011:0012:0014:2001012019300120192017/2018012018/201902012020leandropereira1209paz@gmail.com              2197423306939127212000170
10159SOBERANO                                               030530220193001201914:01JOSE MATIAS DE OLIVEIRA NETO  ZELADOR             27062017000007:0012:0013:0015:200000000000000000         012017/201827052019juniorjack1031@gmail.com                     2199348374739127212000170
10159SOBERANO                                               030560220193001201914:01ELIVALDO COSTA                GARAGISTA           05012019000006:0011:0012:0014:200000000000000000         00         00000000                                             2199361700739127212000170
10161F J PINHEIRO                                           010390220193001201914:01ANTONIO ALVES DE OLIVEIRA     PORTEIRO CHEFE      01082001000206:0010:0011:0014:2001022019020320192017/201800         00000000tonio-oliveira@yahoo.com.br                  2197304098532361511000125
10161F J PINHEIRO                                           010420220193001201914:01EVALDO ADELINO DOS SANTOS     PORTEIRO NOTURNO    07052003000122:0001:0002:0005:2001012019300120192017/201800         00000000                                             2198503162532361511000125
10161F J PINHEIRO                                           010430220193001201914:01JOAQUIM BATISTA DE MELO       ZELADOR             07052003000113:4016:0017:0022:0001082018300820182017/201800         00000000                                             2197970840532361511000125
10161F J PINHEIRO                                           020040220193001201914:01JOSE DE ASSIS DA SILVA        PORTEIRO            01062012000013:4016:0017:0022:0004032018020420182016/2017012017/201801052019                                             2198289700332361511000125
10161F J PINHEIRO                                           020060220193001201914:01JAILSON JOSE DOS SANTOS       FAXINEIRO           01032014000007:0011:0012:0015:2001122018301220182017/201800         00000000                                             2197395621132361511000125
10172SANTA CRUZ                                             001360220193001201914:01FRANCISCO MATIAS FILHO        PORTEIRO            15101987000009:0012:2016:0020:0001092018300920182016/2017012017/201801092019                                             2197997652739077813000115
10172SANTA CRUZ                                             020140220193001201914:01FRANCISCO ERIVERTON GOMES ALVEFOLGUISTA           11022001000009:0012:3015:0018:5001122018301220182017/2018012018/201911012020                                             2199938063939077813000115
10172SANTA CRUZ                                             020150220193001201914:01GENESIO CARLOS GOMES          FAXINEIRO           02042001000007:0011:0012:3015:5001032018300320182016/2017012017/201802032019                                             2196698620239077813000115
10174JUSTO JANSEN                                           020120220193001201914:01JOSE LUIZ DOS SANTOS FILHO    PORTEIRO            04101996000007:0011:0012:0015:2001022018020320182016/2017012017/201801092019                                             2198297894473414641000166
10174JUSTO JANSEN                                           020200220193001201914:01JOSE FELIX DOS SANTOS         VIGIA               05022010000022:0001:0002:0005:2002012019310120192017/2018012018/201905012020                                             2198040508473414641000166
10174JUSTO JANSEN                                           020220220193001201914:01CICERO SEVERINO SOARES        FAXINEIRO           24032015000007:0011:0013:0016:2001062018300620182017/201800         00000000cicerosoares.1012@gmail.com                  2198779198373414641000166
10175AMISTAD EN LA LAGOA                                    001080220193001201914:01ROBERTO SEVERINO DE PONTES    PORTEIRO            01011986000010:0014:0016:0019:2001022018020320182017/2017012018/201901122019                                             0000000000004422809000162
10175AMISTAD EN LA LAGOA                                    010280220193001201914:01WILSON DA SILVA RIBEIRO       ZELADOR             24102003000006:0010:0011:0014:0002052018310520182016/2017012017/201801092019                                             0000000000004422809000162
10175AMISTAD EN LA LAGOA                                    010290220193001201914:01JOSE ARIMATEIA DA COSTA       VIGIA NOTURNO       13042006000122:0001:0002:0005:2002012019310120192017/201800         00000000                                             0000000000004422809000162
10176GOLDEN SAND                                            020060220193001201914:01VALDEMIR DE ABREU             AUX PORTARIA        01101995000013:0017:2020:0022:4501022019020320192017/201800         00000000                                             2196636535168665512000100
10176GOLDEN SAND                                            020130220193001201914:01JOSE DE OLIVEIRA SILVA        PORTEIRO            01101999000208:0013:0016:0018:2001042018300420182016/2017012017/201801092019lsilva099@hotmail.com                        2196963977768665512000100
10176GOLDEN SAND                                            020160220193001201914:01ERONDY ESTEVAO DA CRUZ        FAXINEIRO           06082011000007:0012:0013:0015:2001102018301020182017/201800         00000000erondyestevao@gmail.com                      2197949630668665512000100
10177CIDADE MARSEILLE                                       010230220193001201914:01IRACE MENDES DA SILVA         ZELADOR             01122008000008:0012:0013:0016:2018062018170720182016/2017012017/201801112019                                             2197322528700285579000186
10178GIBRALTAR                                              002110220193001201914:01JORGE LEANDRO DE SOUZA        PORTEIRO CHEFE      01031983000013:4018:0019:0022:0002012019310120192017/201800         00000000                                             0000000000040439945000129
10178GIBRALTAR                                              020150220193001201914:01MURIEL DE OLIVEIRA SENA ALVES PORTEIRO CHEFE      05022009000005:2010:0011:0013:4001122018301220182017/2018012018/201905012020                                             2198413402940439945000129
10178GIBRALTAR                                              020160220193001201914:01MARCELO REIS SOUZA            VIGIA NOTURNO       11022009010322:0001:0002:0005:2001072018240720182017/2018012018/201911012020                                             2198165381240439945000129
10178GIBRALTAR                                              020200220193001201914:01MAX ALMEIDA SOUZA             ZELADOR             17072012000008:0012:0013:0016:2001052018240520182016/2017012017/201801062019                                             0000000000040439945000129
10178GIBRALTAR                                              020230220193001201914:01MATIAS DE OLIVEIRA SENA ALVES ZELADOR             01052013000008:0012:0013:0016:2001042018240420182016/2017012017/201801042019                                             0000000000040439945000129
10181VILA BRETA                                             002230220193001201914:01JOSE FELIPE MOREIRA           PORTEIRO CHEFE      20041987000106:0011:0012:0014:2001072018300720182017/201800         00000000                                             2198958253140383606000178
10181VILA BRETA                                             020520220193001201914:01FERNANDO BARBOSA DE SOUZA     VIGIA NOTURNO       20092000000322:0001:0002:0005:2001082018300820182016/2017012017/201820082019                                             2198387624640383606000178
10181VILA BRETA                                             020670220193001201914:01ADIMILSON GOMES BARBOSA       GARAGISTA           10032008000107:0011:0012:0015:2002012019310120192017/201800         00000000                                             2199013374740383606000178
10181VILA BRETA                                             020700220193001201914:01RENATO SANDRO DE SOUZA TAVEIRAFAXINEIRO           15092008000007:0012:0013:0015:2001112018301120182017/201800         00000000                                             2197147492340383606000178
10181VILA BRETA                                             020790220193001201914:01JOAO BATISTA DA SILVA FIRMINO FAXINEIRO           27062012010107:0011:0012:0015:2001042018300420182016/2017012017/201827052019                                             2197991767040383606000178
10181VILA BRETA                                             020830220193001201914:01DOUGLAS GOMES PAULINO         GARAGISTA           03092014030307:0011:0012:0015:2011102018301020182017/201800         00000000dg8768658@gmail.com                          2198517743240383606000178
10181VILA BRETA                                             020840220193001201914:01KLEMERSON WANSHOSTYMES NUNES FPORTEIRO            26042018000013:4017:0018:0022:000000000000000000         00         00000000klemersonnunes@gmail.com                     2197959326140383606000178
10182PROF HEITOR BUSTAMANTE                                 001460220193001201914:01ROBERTO FELIPE DA SILVA       PORTEIRO            01091988000011:0015:0016:4020:0006082018040920182016/2017012017/201801082019                                             0000000000004642126000110
10182PROF HEITOR BUSTAMANTE                                 020170220193001201914:01EVANGELISTA FERREIRA DOS SANTOZELADOR             01032002010106:0011:0012:4015:0002012019210120192017/201800         00000000                                             2197901637304642126000110
10182PROF HEITOR BUSTAMANTE                                 020180220193001201914:01MANOEL FELIPE DA SILVA IRMAO  VIGIA NOTURNO       01042005010222:0002:0003:0005:2001032018300320182016/2017012017/201801032019                                             0000000000004642126000110
10182PROF HEITOR BUSTAMANTE                                 020260220193001201914:01JOSE SILVA DA COSTA           PORTEIRO            05032018000009:0013:0014:0017:200000000000000000         00         00000000                                             0000000000004642126000110
10183SAINT GERMAIN                                          010150220193001201914:01ROSILDO PAULINO DA SILVA      ZELADOR             01092011000107:4012:0015:0018:0001022019020320192017/201800         00000000                                             2197451022840197030000154
10185PIRAJA                                                 020030220193001201914:01SEVERINO VITORINO DA SILVA    ZELADOR             01072009000008:0012:0014:0017:2001102018301020182017/201800         00000000jessicasubwaycaju@gmail.com                  2199046644240249500000186
10185PIRAJA                                                 020060220193001201914:01JAILTON SILVA DO NASCIMENTO   ZELADOR             30012014010107:0011:0012:0015:2001092018300920182017/2018012018/201901122019vivi-rj33@hotmail.com                        2199251894340249500000186
10187LAREIRA                                                001170220193001201914:01ALVINO LEAL DA SILVA          ZELADOR             16061982000008:4013:0014:0017:0002072018310720182017/201800         00000000                                             2198623014239133756000144
10187LAREIRA                                                010240220193001201914:01JOSE ROBERTO NASCIMENTO ARAUJOZELADOR             01062016000007:0011:0012:0015:2001102018301020182017/201800         00000000                                             2199080817239133756000144
10188LAURA                                                  010070220193001201914:01JOSEMAR OLIVEIRA GONCALVES    PORTEIRO            01032012000108:0012:0014:0017:2001012019300120192017/201800         00000000                                             2198507768839081393000140
10192HORTENSE                                               020390220193001201914:01FRANCISCO MARTINS MARQUES     ZELADOR             01051996000014:0018:0019:0022:0001042018300420182016/2017012017/201801042019franciscommarques@gmail.com                  2198240358100077854000176
10192HORTENSE                                               020450220193001201914:01JOSE RICARDO DE OLIVEIRA      VIGIA NOTURNO       01072011000022:0001:0002:0005:2003022018220220182016/2017012017/201801062019ricardopro70@gmail.com                       2198040607300077854000176
10192HORTENSE                                               020480220193001201914:01ANTONIO MARCOS SOARES         ZELADOR             02072014000006:0010:0011:0014:0001062018300620182016/2017012017/201801062019                                             2198672756200077854000176
10195RESIDENCIAL IPANEMA                                    020710220193001201914:01CICERO ALVES DE CARVALHO      PORTEIRO CHEFE      05102007000007:0011:0012:0015:2011072018300720182016/2017012017/201801092019ciceroc1956@gmail.com                        2198127083239933577000191
10195RESIDENCIAL IPANEMA                                    020740220193001201914:01DANIEL FERREIRA DA SILVA      ZELADOR             01062008010207:0010:0012:0016:2001082018300820182017/201800         00000000dfsilva-78@hotmail.com                       2198353985439933577000191
10195RESIDENCIAL IPANEMA                                    020760220193001201914:01AMILTON FARIAS                VIGIA               22032010000023:0002:0003:0006:2001092018200920182017/201800         00000000augustocesaresp@gmail.com                    2196602750839933577000191
10195RESIDENCIAL IPANEMA                                    020890220193001201914:01LUIS ANTONIO GALVAO DE ARAUJO FOLGUISTA           03062013010307:0011:0012:0015:2004062018030720182017/201800         00000000rj990651077@gmail.com                        2196540236439933577000191
10195RESIDENCIAL IPANEMA                                    020940220193001201914:01JULIO CESAR PEREIRA FARIAS    ZELADOR             15062015000007:0011:0013:0016:2015122018130120192017/201800         00000000jjuliocesar25@gmail.com                      2198210286039933577000191
10195RESIDENCIAL IPANEMA                                    020950220193001201914:01RODRIGO BARBOSA SIBALDE DA SILZELADOR             11042017000007:0012:0013:0015:2005022019060320192017/201800         00000000botafogor13@gmail.com                        2197606103639933577000191
10196LOHNER                                                 001320220193001201914:01VALDIR DA SILVA SOUZA         ZELADOR             09111990010110:0013:0017:0021:2011052018300520182016/2017012017/201809102019                                             0000000000039077912000105
10196LOHNER                                                 010380220193001201914:01EDMILSON HERCULANO DA SILVA   FAXINEIRO           01122001000007:0011:0012:0015:2001032018300320182016/2017012017/201801112019                                             2198316309039077912000105
10204NAUTILUS                                               010560220193001201914:01SIDNEY DE SOUZA SILVA         ZELADOR             01091998000010:0013:2014:2018:2001032018300320182016/2017012017/201801082019sidneysouza79@gmail.com                      2198120705204891965000172
10204NAUTILUS                                               010620220193001201914:01MARCOS GERALDO DE MIRANDA     VIGIA NOTURNO       16032009000022:0001:0002:0005:2030012019280220192017/201800         00000000mirandamarcos849@gmail.com                   2196921615804891965000172
10204NAUTILUS                                               010650220193001201914:01EDUARDO TAVARES DE VASCONCELOSZELADOR             03082015000008:0012:0013:0016:2001062018300620182016/2017012017/201803072019edu.6633@hotmail.com                         2196551912304891965000172
10204NAUTILUS                                               010670220193001201914:01ED LINCOLN TADEU ANTONIO      ZELADOR             09082018020306:0011:0012:0014:200000000000000000         00         00000000lincolntadeulincolntadeu@hotmail.com         2197126976604891965000172
10209MAR AZUL                                               040350220193001201914:01ROBSON MENDES DE SOUSA        GARAGISTA           01121997000022:0001:0002:0005:2011052018300520182016/2017012017/201801112019robsonmendes600@yahoo.com.br                 2198922321539125281000144
10209MAR AZUL                                               040490220193001201914:01WELLISSON ANDRE ESTEVAM       PORTEIRO CHEFE      01102002000113:4017:0018:0022:0003022018040320182016/2017012017/201801092019                                             2199559461039125281000144
10209MAR AZUL                                               050100220193001201914:01VALDEMIR ESTEVAO DOS SANTOS   FOLGUISTA           01082005000006:0011:0012:0014:2001082018300820182017/201800         00000000                                             2199999953539125281000144
10209MAR AZUL                                               050190220193001201914:01CARLOS DA SILVA               VIGIA               01062011000122:0001:0002:0005:2001122018301220182017/201800         00000000carlos05-ms@hotmail.com                      2197217276939125281000144
10209MAR AZUL                                               050250220193001201914:01ROGERIO PEREIRA GUIMARAES     GARAGISTA           24062013000013:4018:0019:0022:0001072018300720182017/201800         00000000rogeriofrigel@gmail.com                      2198184519439125281000144
10209MAR AZUL                                               050280220193001201914:01REGINALDO PEREIRA GUIMARAES   FAXINEIRO           01102016000007:0012:0013:0015:2011102018301020182017/201800         00000000                                             2198065694339125281000144
10209MAR AZUL                                               050290220193001201914:01SIDNEY SILVA DE SOUZA         AUX PORTARIA        01112016000006:0011:0012:0014:2001112018301120182017/201800         00000000sidneykvsilva@gmail.com                      2196483827839125281000144
10209MAR AZUL                                               050300220193001201914:01JULIO CEZAR RAMOS             AUX PORTARIA        23122017000007:0012:0013:0015:2001012019300120192017/201800         00000000jcezar2530@gmail.com                         2198529273339125281000144
10225MARABA                                                 002320220193001201914:01EDUARDO CELESTINO DA SILVA    VIGIA               01041988000122:0001:0002:0005:2001092018300920182017/201800         00000000                                             2198670941239080833000145
10225MARABA                                                 020390220193001201914:01ANTONIO TAVARES DE LIMA       PORTEIRO            02052001000107:0011:0012:0019:0001042018300420182016/2017012017/201802042019                                             0000000000039080833000145
10225MARABA                                                 020420220193001201914:01JOSE QUIRINO DA SILVA         ZELADOR             01042012000007:0011:0012:0019:0010042018090520182017/201800         00000000                                             2198805321139080833000145
10225MARABA                                                 020430220193001201914:01VANDO RODRIGUES DA SILVA      FOLGUISTA           13032016000122:0001:0002:0005:2001042018300420182017/201800         00000000vando55portugual@hotmail.com                 2198287940639080833000145
10225MARABA                                                 020440220193001201914:01ERASMO SEVERINO DE MENEZES    PORTEIRO            01072016000019:0019:3020:3021:0001062018300620182016/2017022016/201701062019                                             2197169771839080833000145
10231HELENA BEDELMAN                                        010070220193001201914:01MARIA DE LOURDES DANTAS FERNANZELADOR             01082001000006:0010:0011:0014:2001072018300720182016/2017012017/20180107201999999999999999999999                         0000000000068640143000100
10231HELENA BEDELMAN                                        010140220193001201914:01ISANIL GAMA CABRAL            FAXINEIRO           13012009000113:4017:0018:0022:0013122018110120192017/2018012018/201913122019                                             2198919851968640143000100
10232GIBRAN NACIFFE                                         010720220193001201914:01ANDRE RODRIGUES DE SOUSA      VIGIA NOTURNO       01042013010322:0001:0002:0005:2001022018020320182016/2017012017/201801032019rodriguezzluiz@gmail.com                     2197919555906243294000169
10232GIBRAN NACIFFE                                         010740220193001201914:01APARECIDO LIRA DO NASCIMENTO  ZELADOR             13052015010306:0011:0012:4015:0001042018300420182016/2017012017/201813042019                                             2199082502006243294000169
10232GIBRAN NACIFFE                                         010760220193001201914:01CESAR ALVES DA SILVA          ZELADOR             01112018000011:0015:0016:4020:000000000000000000         00         00000000                                             2199039295906243294000169
10233LENA                                                   001110220193001201914:01ANTONIO SEVERINO BISPO        ZELADOR             06071994000008:0012:0014:0017:2001062018300620182016/2017012017/201801062019                                             2198215479801903446000199
10235SAMBAIBA II                                            001240220193001201914:01DJALMA ROSENDO DE ANDRADE     PORTEIRO            03081986000007:0011:0012:0015:2001032018300320182016/2017012017/201803072019djalma.andrade67@yahoo.com.br                2199153906801765048000153
10235SAMBAIBA II                                            010420220193001201914:01PEDRO PAULO PEREIRA           VIGIA NOTURNO       01082014010222:0001:0002:0005:2001012019300120192017/201800         00000000pedropaulo7412@gmail.com                     2197412559201765048000153
10235SAMBAIBA II                                            010440220193001201914:01MILTON SOARES PERES           ZELADOR             01072016000006:0011:0013:0016:2001062018300620182016/2017012017/201801062019peresmilton1970@gmail.com                    2199498040901765048000153
10236ALEXANDRIA II                                          001280220193001201914:01FRANCISCO DE ASSIS PEDRO DOS SPORTEIRO            05081993000011:0015:0016:4020:0001032018300320182016/2017012017/201805072019                                             9999999999901864329000163
10236ALEXANDRIA II                                          010360220193001201914:01LUIZ NUNES DA SILVA           VIGIA NOTURNO       01071999000022:0001:0002:0005:2001012018300120182016/2017012017/201801062019luiznunes266@gmail.com                       2199997435501864329000163
10236ALEXANDRIA II                                          010370220193001201914:01RAIMUNDO CHAGAS DE PAIVA FILHOAUX PORTARIA        11092003010206:0011:0012:4015:0001062018300620182016/2017012017/201811082019                                             2196608202401864329000163
10236ALEXANDRIA II                                          010390220193001201914:01EDSON FRANCISCO COSTA         ZELADOR             01102018000009:0013:0014:0017:200000000000000000         00         00000000                                             2197414047101864329000163
10243JATOBA                                                 010170220193001201914:01MARLUCE DOS SANTOS            ZELADOR             01102009000008:0012:0015:0019:0001092018300920182016/2017012017/201801092019                                             2199171993368646223000164
10248RORY                                                   002170220193001201914:01JOAO DE DEUS PEREIRA DA SILVA PORTEIRO CHEFE      01021993000007:0011:0014:0017:2011082018300820182017/2018012018/201901012020jddpsilva53@gmail.com                        2198507882068650019000117
10248RORY                                                   030010220193001201914:01RAIMUNDO DE FREITAS ARAUJO    VIGIA               01102010000022:0001:0002:0005:2011092018300920182016/2017012017/201801092019                                             2198313221568650019000117
10248RORY                                                   030020220193001201914:01JOSANIEL ALVES DO VALE        ZELADOR             07012015000006:0010:0011:0014:2001102018301020182017/2018012018/201907122019                                             2196960399068650019000117
10248RORY                                                   030040220193001201914:01ISAAC DE CARVALHO SOUZA       AUX PORTARIA        01042015000013:4016:0017:0022:0005012019030220192017/201800         00000000                                             2199930307968650019000117
10248RORY                                                   030060220193001201914:01ELIAS PEREIRA DA SILVA        ZELADOR             10012019000006:0011:0012:0014:200000000000000000         00         00000000                                             2198098603468650019000117
10250ROMIZA                                                 001160220193001201914:01INACIO FERREIRA DE OLIVEIRA   PORTEIRO            01081991000007:0011:0012:0015:2011012019300120192017/201800         00000000inacioferreira390@gmail.com                  2196543691539077037000153
10250ROMIZA                                                 010250220193001201914:01SILVESTRE DOS SANTOS FARIA    VIGIA NOTURNO       01112009020222:0001:0002:0005:2021112017101220172016/2017012017/201801102019                                             2199683710639077037000153
10250ROMIZA                                                 010270220193001201914:01ERONILDO PATRICIO DO NASCIMENTAUX SERVICOS GERAIS 01072013000007:0011:0012:0015:2001062017300620172016/2017012017/201801062019eronildopatricio08@gmail.com                 2197985290039077037000153
10252JAGUAR                                                 001050220193001201914:01TOMAZ BEZERRA COSTA           ZELADOR             01111982000007:0011:0015:0018:2001092018300920182016/2017012017/201801102019                                             2198186714601824314000171
10253ERNESTO ALEGRIA                                        020200220193001201914:01SILAS PEREIRA OLIVEIRA        ZELADOR             01072015000013:4018:0019:0022:0001072018300720182017/201800         00000000                                             2197902025135796234000171
10253ERNESTO ALEGRIA                                        020210220193001201914:01MARCELO CARDOSO COSTA         ZELADOR             15072015000013:4017:0018:0022:0001102018301020182017/201800         00000000                                             2197410294735796234000171
10253ERNESTO ALEGRIA                                        020230220193001201914:01JOSIANO BELARMINO DA SILVA    ZELADOR             14032016010105:2010:0011:0013:4001042018300420182017/201800         00000000josianobelodasilvasilva@gmail.com            2197356951735796234000171
10253ERNESTO ALEGRIA                                        020250220193001201914:01MARCOS AURELIO DA SILVA NUNES ZELADOR             24072017010222:0001:0002:0005:2003012019010220192017/201800         00000000m974622134@gmail.com                         2196646341935796234000171
10253ERNESTO ALEGRIA                                        020260220193001201914:01ANTONIO CARLOS FERREIRA DA SILZELADOR             01032018000007:0011:0012:0015:200000000000000000         00         00000000antoniocarlos310420fc@gmail.com              2196525138535796234000171
10259ORLANDO ROCAS                                          001430220193001201914:01ENOQUE BARROS DE MOURA        PORTEIRO CHEFE      19061986000007:0011:0013:0016:2001052018300520182016/2017012017/201819052019                                             2198185018039127113000198
10259ORLANDO ROCAS                                          002090220193001201914:01RAIMUNDO DIAS DA SILVEIRA     ZELADOR             01041995000007:0011:0012:0015:2001022018020320182016/2017012017/201801032019raimundod109@gmail.com                       2198295572339127113000198
10259ORLANDO ROCAS                                          020250220193001201914:01LUIZ ENRIQUE SOUZA DE SANTANA ZELADOR             01112013000009:4012:0013:0018:0001102018301020182016/2017012017/201801102019hs781382@gmail.com                           2196973291739127113000198
10259ORLANDO ROCAS                                          020270220193001201914:01JOSICLEIDE DA CONCEICAO NASCIMZELADOR             01032016000007:0011:0012:0015:2001032018300320182017/201800         00000000                                             2197379892539127113000198
10259ORLANDO ROCAS                                          020290220193001201914:01FILIPE KNUST E SILVA          VIGIA NOTURNO       01092018000022:0000:0001:0005:200000000000000000         00         00000000filipeknus@gmail.com                         2199273831839127113000198
10262OURO PRETO                                             002030220193001201914:01SEVERINO JERONIMO DE LIRA     PORTEIRO            02061986000006:0011:0012:4015:0001052018300520182016/2017012017/201802052019                                             0000000000000487714000176
10262OURO PRETO                                             020120220193001201914:01JOSE GESSE DAMIAO DA SILVA    ZELADOR             01042017000011:0015:0017:0020:2011112018301120182017/201800         00000000                                             0000000000000487714000176
10273EDELWEISS                                              020330220193001201914:01EDIELSO RAMOS DE OLIVEIRA     PORTEIRO CHEFE      01092001000106:0011:0012:0014:2001112018301120182017/201800         0000000099999999999                                  0099999999972182231000174
10273EDELWEISS                                              020480220193001201914:01JOSE OLAVO DE CARVALHO        PORTEIRO NOTURNO    14052012000022:0001:0002:0005:2001092018300920182017/201800         00000000                                             2198088491472182231000174
10273EDELWEISS                                              020500220193001201914:01FRANCISCO LEANDRO FERREIRA    AUX PORTARIA        03122012010113:4016:0017:0022:0001012019300120192017/201800         00000000                                             0000000000072182231000174
10273EDELWEISS                                              020530220193001201914:01RODRIGO TAVARES CELESTINO     ZELADOR             13052015010106:0011:0012:0014:2001102018301020182017/201800         00000000rodrigo.sophia777@gmail.com                  2198015426372182231000174
10275ROSAL                                                  020140220193001201914:01RITO ANTONIO DE SOUZA         ZELADOR CHEFE       01112012000207:0011:0012:0015:2001092018300920182016/2017012017/201801102019                                             2199557631301864330000198
10275ROSAL                                                  020170220193001201914:01JOCEMAR SOUZA DE OLIVEIRA     VIGIA NOTURNO       01122013000322:0001:0002:0005:2001112018301120182016/2017012017/201801112019                                             2196866949401864330000198
10275ROSAL                                                  020260220193001201914:01WELLINGTON ALVES DE LIMA      ZELADOR             01102018010113:4017:0018:0022:000000000000000000         00         00000000tomlima14@gmail.com                          2198037457701864330000198
10279ARPOADOR                                               030090220193001201914:01IVAN JUSTINO DA SILVA         VIGIA NOTURNO       18121998000122:0001:0002:0005:2001012019300120192017/201800         00000000                                             2196545686939124326000166
10279ARPOADOR                                               030180220193001201914:01JOSE AUGUSTO DA SILVA         ZELADOR             01102010010309:0013:0017:0020:2001092018300920182016/2017012017/201801092019                                             2199470630439124326000166
10279ARPOADOR                                               030200220193001201914:01EDILSON HONORATO DA SILVA     PORTEIRO            01022016000009:0013:0017:0020:2011022019020320192018/201900         00000000                                             2197461334939124326000166
10280AQUARIUS                                               040360220193001201914:01FRANCISCO DE ASSIS FERNANDES DPORTEIRO NOTURNO    01041998010119:0001:0003:0007:0001012018300120182016/2017012017/201801032019                                             2198677638540263618000169
10280AQUARIUS                                               050050220193001201914:01MARCOS ANTONIO DA SILVA       PORTEIRO DIURNO     01072000000007:0012:0013:0019:0001062018300620182016/2017012017/201801062019ma346648@gmail.com                           2198809832540263618000169
10280AQUARIUS                                               050190220193001201914:01FRANCISVALDO DOS SANTOS ABREU GARAGISTA DIURNO    01062005000007:0012:0013:0019:0001082018300820182017/201800         00000000francivaldo.abreu@gmail.com                  2199948733440263618000169
10280AQUARIUS                                               050270220193001201914:01GILSON BISPO DA COSTA         PORTEIRO CHEFE      01042007010110:0014:0015:0018:2001012019300120192017/201800         00000000gilsonbcosta@gmail.com                       2198468219840263618000169
10280AQUARIUS                                               050300220193001201914:01JULIO BARRETO                 PORTEIRO NOTURNO    10072008000019:0023:0001:0007:0011092018300920182017/201800         00000000                                             2198861420640263618000169
10280AQUARIUS                                               050320220193001201914:01ISAQUIEL MARTINS DE FARIAS    ZELADOR             20042010000008:0012:0013:0020:0001022018020320182016/2017012017/201820032019isaquielmartins90@gmail.com                  2196580287840263618000169
10280AQUARIUS                                               050370220193001201914:01MARCOS SANTOS DE SOUSA        GARAGISTA DIURNO    01122011010108:0012:0013:0020:0001102018301020182016/2017012017/201801112019marcossantos3540@gmail.com                   2199125280740263618000169
10280AQUARIUS                                               050380220193001201914:01ANTONIO MARCO LIMA DA SILVA   PORTEIRO DIURNO     03042012000007:0012:0013:0019:0001032018300320182016/2017012017/201803032019marquinhos_lima18@hotmail.com                2196658571640263618000169
10280AQUARIUS                                               050400220193001201914:01PAULO ANTONIO MESQUITA DE SOUZZELADOR             01102013000008:0012:0013:0020:0001072018300720182016/2017012017/201801092019pg610484@gmail.com                           2197979660740263618000169
10280AQUARIUS                                               050420220193001201914:01VAGNER CANDIDO SILVA          PORTEIRO CHEFE SUBST05012015000013:4016:0017:0022:0011072018300720182017/2018012018/201905122019vagnercandido61porteirotst@gmail.com         2196599910540263618000169
10280AQUARIUS                                               050440220193001201914:01JONATHAS SANTOS DE LIMA       ZELADOR             18122015010208:0012:0013:0020:0001052018300520182016/2017012017/201801112019jonathaslima940@gmail.com                    2198825712840263618000169
10280AQUARIUS                                               050450220193001201914:01EDUARDO MANHAES               GARAGISTA NOTURNO   02042017000019:0001:0003:0006:0001112018201120182017/201800         00000000                                             2199732900140263618000169
10280AQUARIUS                                               050460220193001201914:01REGINALDO ALBUQUERQUE DOS SANTGARAGISTA           01022018010119:0023:0001:0007:000000000000000000         012018/201901012020                                             2196854495740263618000169
10280AQUARIUS                                               050470220193001201914:01FLAVIO FIDELIS DE ARAUJO      ZELADOR             02102018020207:0012:0013:0015:200000000000000000         00         00000000 999999999999999999999999                    9999999999940263618000169
10281AMARALINA                                              003330220193001201914:01FRANCISCO DE SALES FARIAS NOBRPORTEIRO CHEFE      09061987000007:0011:0012:0015:2001012019300120192017/201800         00000000                                             2198224726703469938000143
10281AMARALINA                                              040180220193001201914:01SEVERINO PEDRO DA SILVA       ZELADOR             01032002000007:0011:0012:0015:2001092018300920182017/201800         00000000                                             2197322531703469938000143
10281AMARALINA                                              040210220193001201914:01FRANCISCO LEANDRO BENVINDO MARZELADOR             01082014000007:0011:0012:0015:2001032018300320182016/2017012017/201801072019                                             2198037934303469938000143
10281AMARALINA                                              040220220193001201914:01FLAVIO BARBOSA DE OLIVEIRA    VIGIA               01112018000020:0001:0003:0007:000000000000000000         00         00000000                                             0000000000003469938000143
10281AMARALINA                                              040230220193001201914:01THIAGO DOS SANTOS             VIGIA               01112018000020:0001:0003:0007:000000000000000000         00         00000000                                             2196542463003469938000143
10287VISCONDE DA GRACA                                      010110220193001201914:01ADILSON DE NAZARE MANOEL      ZELADOR             01062013000007:0000:0000:0011:000000000000000000         012017/201801052019                                             2197453863903636380000143
10288MAGA                                                   020280220193001201914:01OSMAR AMANCIO DOS SANTOS      VIGIA NOTURNO       01081998000021:0001:0003:0009:0011062018300620182016/2017012017/201801072019                                             2199227836839093356000152
10288MAGA                                                   020320220193001201914:01ANTONIO MILTON RODRIGUES LIMA AUX SERVICOS GERAIS 01062008000107:0011:0012:0015:2001072018300720182017/201800         00000000leiluskaa@hotmail.com                        2198338610639093356000152
10288MAGA                                                   020330220193001201914:01IVAN MARCOS SILVA DOS SANTOS  PORTEIRO NOTURNO    15102018000021:0001:0003:0009:000000000000000000         00         00000000ivan.cinegrafista@gmail.com                  2197317649939093356000152
10288MAGA                                                   020340220193001201914:01DOUGLAS MANOEL DE ANDRADE     PORTEIRO            01112018000009:0013:0014:0021:000000000000000000         00         00000000douglas.andra5525@gmail.com                  2198296161339093356000152
10290BOSQUE DOS MIRANTES I BL II                            003910220193001201914:01HELENO RICARDO DA COSTA       CHEFE PORTARIA      17111987000008:3013:3016:3018:5015102018131120182016/2017012017/201817102019                                             2198350537219617138000162
10290BOSQUE DOS MIRANTES I BL II                            005920220193001201914:01JOAO CARLOS MEDEIROS DA SILVA VIGIA DIURNO        07121992000006:0011:0012:0018:0010092018091020182016/2017012017/201801112019joazinhomedeiro003@gmail.com                 2197296846319617138000162
10290BOSQUE DOS MIRANTES I BL II                            006730220193001201914:01EVERALDO PLACIDO DO NASCIMENTOFAXINEIRO           12071995010107:0012:0013:0015:2010052018080620182016/2017012017/201801062019placido2820@gmail.com                        2198313690119617138000162
10290BOSQUE DOS MIRANTES I BL II                            070380220193001201914:01GERMANO PEDRO DOS SANTOS      VIGIA DIURNO        10051999000006:0011:0012:0018:0010042018090520182016/2017012017/201810042019                                             2198020340219617138000162
10290BOSQUE DOS MIRANTES I BL II                            070450220193001201914:01BRUNO DE JESUS DA SILVA       AUX ADMINISTRATIVO  15121999000008:0012:0013:0016:2011042018300420182016/2017012017/201801112019bruno.brunoje@gmail.com                      2197533978019617138000162
10290BOSQUE DOS MIRANTES I BL II                            070500220193001201914:01ADEILTON CABRAL ALBUQUERQUE   VIGIA NOTURNO       25042001000118:0023:0001:0006:0006012019040220192017/201800         00000000adeiltocabral@gmail.com                      2198506163219617138000162
10290BOSQUE DOS MIRANTES I BL II                            070750220193001201914:01EDVALDO SILVA DOS SANTOS      VIGIA NOTURNO       18082004000018:0023:0001:0006:0012102018101120182017/201800         00000000                                             2197589888019617138000162
10290BOSQUE DOS MIRANTES I BL II                            070910220193001201914:01JOAO PAULO ARAUJO DE SOUZA    PORTEIRO            20072006000006:0011:0012:0018:0009082018070920182017/201800         00000000pauloaraujo82892290@gmail.com                2198289229019617138000162
10290BOSQUE DOS MIRANTES I BL II                            070940220193001201914:01ANDRE LUIZ DA SILVA           VIGIA NOTURNO       08012007000018:0023:0001:0006:0012052018100620182017/2018012018/201908122019                                             2199101313519617138000162
10290BOSQUE DOS MIRANTES I BL II                            070970220193001201914:01FRANCISCO DAS CHAGAS CAVALCANTPORTEIRO NOTURNO    04102007000118:0023:0001:0006:0006022018070320182016/2017012017/201801092019                                             2199830500519617138000162
10290BOSQUE DOS MIRANTES I BL II                            070990220193001201914:01MANOEL MESSIAS CRUZ DA SILVA  VIGIA NOTURNO       09042008000018:0001:0003:0006:0005012018030220182016/2017012017/201809032019manoelmessias.cruz@gmail.com                 2197227511319617138000162
10290BOSQUE DOS MIRANTES I BL II                            080100220193001201914:01ANTONIO FELICIO DE SOUZA NETO PORTEIRO NOTURNO    29032010000218:0001:0003:0006:0012112018111220182017/201800         00000000                                             2196523210219617138000162
10290BOSQUE DOS MIRANTES I BL II                            080190220193001201914:01WESLEY SILVA SANTOS           PORTEIRO            01082011010106:0011:0012:0018:0012062018110720182016/2017012017/201801072019                                             2198301472719617138000162
10290BOSQUE DOS MIRANTES I BL II                            080430220193001201914:01PAULO CESAR MENEZES           VIGIA DIURNO        02092015000109:4013:0014:0018:0015112018141220182017/201800         00000000                                             2198588998319617138000162
10290BOSQUE DOS MIRANTES I BL II                            080440220193001201914:01MARCIO ADRIANO ALVES          VIGIA NOTURNO       09092015010218:0021:0023:0006:0011072018090820182016/2017012017/201809082019marcio5552018@gmail.com                      2198638724719617138000162
10290BOSQUE DOS MIRANTES I BL II                            080460220193001201914:01ADAELSON DOS SANTOS SILVA     FAXINEIRO           11012017000007:0011:0012:0015:2020062018190720182017/2018012018/201911122019                                             2196592203119617138000162
10290BOSQUE DOS MIRANTES I BL II                            080470220193001201914:01JOELSON FIDELIS GONCALVES     FAXINEIRO           09032017000107:0012:0013:0015:2024072018220820182017/201800         00000000                                             2197961845919617138000162
10294SACADA DO LEBLON                                       005070220193001201914:01ROBERTO CARLOS PEQUENO DO NASCZELADOR             02031993000108:0013:0017:0019:2002012019310120192017/201800         00000000                                             2199129505273642928000143
10294SACADA DO LEBLON                                       010010220193001201914:01DEIVILIR COUTINHO DE MOURA    FAXINEIRO           01102016010107:0011:0012:0015:2001092018300920182016/2017012017/201801092019                                             2198473721073642928000143
10294SACADA DO LEBLON                                       010020220193001201914:01ALEXSANDRO DO NASCIMENTO      VIGIA NOTURNO       01112016020322:0001:0002:0005:2020062018190720182016/2017012017/201801102019sandrocaicarapb@gmail.com                    2199132373773642928000143
10295DARLINGTON                                             030610220193001201914:01ANTONIO VALDECY SOUSA DA COSTAPORTEIRO CHEFE      05032002000008:0012:0016:0019:2002012019310120192017/201800         00000000                                             2198213452039123625000186
10295DARLINGTON                                             030650220193001201914:01JOSE GALDINO DOS SANTOS       ZELADOR             09082004000007:3011:0012:0015:500000000000000000         012017/201809072019dedinha2829@gmail.com                        2197321643239123625000186
10295DARLINGTON                                             030670220193001201914:01GILVAN RIBEIRO DOS SANTOS     ZELADOR             21032006000013:4018:0019:0022:0001072018300720182017/201800         00000000                                             2196802028639123625000186
10295DARLINGTON                                             030720220193001201914:01AILSON MIGUEL DE JESUS SANTOS ZELADOR             01042016010107:0011:0012:0015:2001022018020320182016/2017012017/201801032019                                             2197947089839123625000186
10295DARLINGTON                                             030740220193001201914:01REGIVALDO RIBEIRO DOS SANTOS  ZELADOR             09072016000013:4017:0018:0022:0001042018300420182016/2017012017/201801062019                                             2197307464439123625000186
10295DARLINGTON                                             030750220193001201914:01RODRIGO DA SILVA SANTOS       ZELADOR             07022018000022:0000:0001:0005:200000000000000000         012018/201907012020alicerodrigo2121@gmail.com                   2196782241139123625000186
10295DARLINGTON                                             030760220193001201914:01FABIANO SOARES BEZERRA BRANDAOPORTEIRO NOTURNO    11122018010222:0000:0001:0005:200000000000000000         00         00000000                                             0000000000039123625000186
10298TIETE                                                  030420220193001201914:01JOSIVAN FERREIRA DE LIMA      VIGIA NOTURNO       12031997000022:0001:0002:0005:2005022019060320192017/201800         00000000                                             0000000000039084892000191
10298TIETE                                                  030550220193001201914:01JOSE FLAVIO RIBEIRO PAULINO   AUX MANUTENCAO      28012008000007:0011:0012:0015:2002012019110120192017/2018022017/201828122019                                             0000000000039084892000191
10298TIETE                                                  030680220193001201914:01JOSE GUILHERME FERREIRA DA SILPORTEIRO            21022013000007:0012:0013:0015:2024062018230720182017/2018012018/201921012020                                             0000000000039084892000191
10298TIETE                                                  030720220193001201914:01EMERSON RIQUELME EMIDIO DA COSZELADOR             17072015000012:0016:0017:0020:2008012019270120192017/201800         00000000                                             0000000000039084892000191
10298TIETE                                                  030730220193001201914:01JOAO MARIA DA SILVA NETO      ZELADOR             23112016000008:0012:0013:0016:2011082018300820182016/2017012017/201823102019                                             0000000000039084892000191
10298TIETE                                                  030740220193001201914:01JOSE ANDESON FLORENCIO DA SILVZELADOR             24012017000008:0012:0013:0016:2001092018300920182017/2018012018/201924122019                                             0000000000039084892000191
10298TIETE                                                  030750220193001201914:01PATRICIA DE OLIVEIRA RODRIGUESZELADOR             03012019000009:0012:0013:0017:200000000000000000         00         00000000                                             0000000000039084892000191
10300INFANTE DON SANCHO MARTINHO                            020240220193001201914:01JOSE MARIA FONTELES PAIVA     PORTEIRO            01072000000005:2009:0010:0013:4001062018300620182016/2017012017/201801062019                                             2199358435039076682000151
10300INFANTE DON SANCHO MARTINHO                            020270220193001201914:01EDVAL SOARES DA SILVA         PORTEIRO NOTURNO    11102001000022:0001:0002:0005:2011012019300120192017/201800         00000000edvalsoaresdasilva@gmail.com                 2198344560239076682000151
10300INFANTE DON SANCHO MARTINHO                            020430220193001201914:01JOSE DIMAS MARTINS DE LUNA    AUX PORTARIA        01082008000213:4017:0018:0022:0001072018300720182016/2017012017/201801072019                                             2198039666839076682000151
10300INFANTE DON SANCHO MARTINHO                            030040220193001201914:01WILLIAM GOMES DA SILVA        AUX PORTARIA        01092015000008:4012:0014:0018:0001082018300820182016/2017012017/201801082019willamim.gomes@hotmail.com                   2198239187239076682000151
10311LEE                                                    020400220193001201914:01JONAS MOREIRA DAMASCENO       PORTEIRO            01102004000008:0013:0016:3018:5001092018300920182016/2017012017/201801092019jonasipanema@gmail.com                       2198139086601990413000123
10311LEE                                                    030020220193001201914:01ALEXSANDRO CAMPOS DE SA       ZELADOR             01112011000007:0011:0012:0015:2001052018300520182016/2017012017/201801102019alexsandrocampos4949@gmail.com               2196804999301990413000123
10311LEE                                                    030050220193001201914:01JOSEMIR ROSA DE AZEVEDO       VIGIA NOTURNO       21092015010120:0001:0003:0007:0001072018300720182016/2017012017/201821082019josemirrosaazevedo@gmail.com                 2198298067901990413000123
10311LEE                                                    030100220193001201914:01GLAUCO BARBOSA DE SOUSA       VIGIA NOTURNO       01072018020220:0000:0002:0007:000000000000000000         00         00000000glaucovelasques@gmail.com                    2196924353301990413000123
10316GUAPORE                                                030580220193001201914:01SERGIO MACIEL DE LIMA         PORTEIRO CHEFE      01091997000007:0013:0014:0019:0001102017301020172016/2017012017/201801082019boi.sergio469@gmail.com                      2196412126928129070000163
10316GUAPORE                                                030790220193001201914:01ANTONIO CLEMENTE DA SILVA     PORTEIRO            01112010000007:0013:0014:0019:0001022019020320192017/201800         00000000jojojosy@hotmail.com                         2196723186528129070000163
10316GUAPORE                                                030810220193001201914:01SERGIO MACIEL DA SILVA        FAXINEIRO           02022012000208:0012:0013:0016:2005012019030220192017/2018012018/201902012020alcineidemcsilva@hotmail.com                 2198810313428129070000163
10316GUAPORE                                                030850220193001201914:01JOSE ODAIR NASCIMENTO DA SILVAVIGIA NOTURNO       19012013000019:0001:0003:0007:0001122018201220182017/2018012018/201919122019                                             2196588434328129070000163
10316GUAPORE                                                030890220193001201914:01CARLOS ANTONIO DOS SANTOS DANTPORTEIRO            17042018000019:0001:0003:0019:000000000000000000         00         00000000acarlosdantas72@gmail.com                    2198083744928129070000163
10320MARIA DE LOURDES DUARTE                                010090220193001201914:01JOSE PIRES DA SILVA SOBRINHO  ZELADOR             01112017020207:0012:0013:0015:200000000000000000         012017/201801102019                                             2197300136002408878000196
10333POVOADO DAS CANOAS                                     002050220193001201914:01LOURENCO DOS SANTOS FILHO     AUX SERVICOS GERAIS 07021979000008:0011:2013:0017:0007012019050220192017/2018012018/201907012020                                             2196713238703527996000186
10333POVOADO DAS CANOAS                                     002130220193001201914:01SEVERINO JOSE DE FREITAS      AUX SERVICOS GERAIS 01121979000008:0011:2013:0017:0001042018300420182016/2017012017/201801112019                                             2198069915703527996000186
10333POVOADO DAS CANOAS                                     030210220193001201914:01EDUARDO SABINO DA FONSECA     JARDINEIRO          01011997000008:0011:2013:0017:0001032018300320182017/2017012018/201901122019                                             2198090079703527996000186
10333POVOADO DAS CANOAS                                     040240220193001201914:01ROBERTO MARCELINO COELHO      ENC MANUTENCAO      02101997010108:0011:2013:0017:000000000000000000         012017/201801092019robertomarcelino.94@gmail.com                2197400336903527996000186
10333POVOADO DAS CANOAS                                     040270220193001201914:01ANTONIO WILSON MOURA DE FARIASPORTEIRO NOTURNO    18121998000019:0001:0003:0007:0001112018301120182016/2017012017/201801112019                                             2196592060303527996000186
10333POVOADO DAS CANOAS                                     040370220193001201914:01JOSE MARCELO DA SILVA         PORTEIRO CHEFE      17032003000110:0014:0015:0019:0001112018201120182017/201800         00000000mmwjdasilva@gmail.com                        2197324819503527996000186
10333POVOADO DAS CANOAS                                     050510220193001201914:01EDIMILSON MORAIS DOS SANTOS   AUX MANUTENCAO      01042014000008:0011:2013:0017:0001052018300520182017/201800         00000000                                             2199720037803527996000186
10333POVOADO DAS CANOAS                                     050540220193001201914:01JOAO LUIZ DO NASCIMENTO SOARESPORTEIRO            14012015000107:0012:0013:0019:0001012019300120192017/201800         00000000jo-aver@hotmail.com                          2198748474803527996000186
10333POVOADO DAS CANOAS                                     050590220193001201914:01SAULO DA CONCEICAO RAYMUNDO   PORTEIRO NOTURNO    07032015010222:0001:0002:0005:2001062018300620182017/201800         0000000099999999999999                               2198385446803527996000186
10333POVOADO DAS CANOAS                                     050610220193001201914:01MARLENE PARENTE PINTO         SUPERVISOR          07042015000008:0012:0012:1514:0014022018150320182016/2017012017/201807032019marleneparente@yahoo.com                     2199186207203527996000186
10333POVOADO DAS CANOAS                                     050650220193001201914:01EDMILSON JOSE DOS SANTOS JUNIOPORTEIRO            10092015010107:0012:0013:0019:0001122018301220182017/201800         00000000eddjuniorjunior@gmail.com                    2199165709703527996000186
10333POVOADO DAS CANOAS                                     050740220193001201914:01JOSE CICERO DA SILVA          VIGIA NOTURNO       01092016000022:0001:0002:0005:2001072018300720182016/2017012017/201801082019                                             2197477104103527996000186
10333POVOADO DAS CANOAS                                     050770220193001201914:01GIOVANNI OLIVEIRA SANTOS      PORTEIRO NOTURNO    17012019000019:0001:0003:0007:000000000000000000         00         00000000giovannioliveira879@gmail.com                2197175797603527996000186
10355VERITAS IV                                             010630220193001201914:01JOSE ETEVALDO FERREIRA        PORTEIRO            02012001000109:0013:0016:4020:0001122018301220182017/2018012018/201902122019joseetevaldo128@gmail.com                    2197288857305921841000155
10355VERITAS IV                                             010660220193001201914:01LUIZ JOSE DOS SANTOS          VIGIA NOTURNO       17052007020322:0001:0002:0005:2011052018300520182016/2017012017/201817042019                                             2198611012105921841000155
10355VERITAS IV                                             010680220193001201914:01ADILSON ALVES DE ASSIS        PORTEIRO            01122009000006:0011:0013:0015:2001092018200920182016/2017012017/201801112019aadilson777@gmail.com                        2196640023105921841000155
10355VERITAS IV                                             010720220193001201914:01LEANDRO JUSTINO DA SILVA      ZELADOR             05082016000009:0013:0014:0017:2001082017300820172016/2017012017/201805072019lejdasilva@icloud.com                        2198284098005921841000155
10364VYF                                                    001180220193001201914:01RAIMUNDO FERREIRA GOMES       ZELADOR             01061992000007:0011:0015:0018:2001112018201120182017/201800         00000000                                             2196906560639126156000159
10369WASHINGTON                                             002300220193001201914:01LUIS JUSTINO DE MELO          PORTEIRO NOTURNO    01021992000019:0023:0001:0007:0001012019300120192017/2018012018/201901012020                                             2196557746400732480000185
10369WASHINGTON                                             030480220193001201914:01MARCIO MATIAS DE ASSIS        ZELADOR             02012012000019:0023:0001:0007:0001022018020320182017/2018012018/201902122019                                             2196870876500732480000185
10369WASHINGTON                                             030500220193001201914:01ANDRE CASE DE MELO            PORTEIRO            01022016000007:0011:0012:0019:0001012019300120192017/2018012018/201901012020andrecase.dhow@gmail.com                     2197973765200732480000185
10369WASHINGTON                                             030510220193001201914:01ANTONIO CABRAL DE ANDRADE     PORTEIRO            01112016000007:0011:0012:0019:0001062018300620182016/2017012017/201801102019                                             2198531534200732480000185
10369WASHINGTON                                             030520220193001201914:01SILVINO LAURENTINO DA SILVA   ZELADOR             01032018000007:0011:0012:0019:000000000000000000         00         00000000                                             2199819839600732480000185
10371ADRIANO DE BARROS                                      010860220193001201914:01ROGELIO PASCOAL DOS SANTOS    VIGIA NOTURNO       02062014010322:0001:0002:0005:2001062018300620182017/201800         00000000rogeliopascoal@gmail.com                     2199364850828988954000173
10371ADRIANO DE BARROS                                      010870220193001201914:01MARCOS FRANK RIBEIRO          ZELADOR             01072014000008:0012:0014:0017:2011092018300920182017/201800         00000000                                             2198752936228988954000173
10371ADRIANO DE BARROS                                      010910220193001201914:01EDVANDRO DOS SANTOS LIMA      PORTEIRO            02062016000007:0011:0012:0015:2001082018300820182017/201800         00000000                                             2196643723528988954000173
10371ADRIANO DE BARROS                                      010940220193001201914:01RUBENS RODRIGUES DE SOUSA     ZELADOR             01062017010107:0012:0013:0015:2001072018300720182017/201800         00000000rubens-sousa22@hotmail.com                   2199452231428988954000173
10374BOLIVAR                                                020350220193001201914:01AMADO BATISTA BEZERRA         PORTEIRO            01042008000013:4017:0018:0022:0010062018090720182017/201800         00000000                                             0000000000039085287000135
10374BOLIVAR                                                020370220193001201914:01FRANCISCO EUDES CAMPOS DA SILVVIGIA NOTURNO       02052011020222:0001:0002:0005:2002072018310720182017/201800         00000000                                             0000000000039085287000135
10374BOLIVAR                                                020410220193001201914:01CRISTIANO DOS SANTOS NOROES   PORTEIRO            01022014000008:0012:0013:0016:2001042018300420182017/2018012018/201901012020cristiano.noroes22@gmail.com                 2196598936739085287000135
10374BOLIVAR                                                020420220193001201914:01ALCIR GOMES DO NASCIMENTO JUNIFAXINEIRO           24112014000007:0011:0012:0015:2024102018221120182016/2017012017/201824102019alcir.gomes1@hotmail.com                     2197924295839085287000135
10377MARCOS ANGELO                                          010460220193001201914:01ANTONIO WILSON FERREIRA DA SILZELADOR             01051999000007:0011:0014:3017:5001012018300120182016/2017012017/201801042019                                             0097989022373754707000167
10380ITABIRA                                                001770220193001201914:01IVANILDO FERNANDES DE FARIAS  GARAGISTA NOTURNO   01071985000022:0001:0002:0005:2001082018300820182017/201800         000000009999999999                                   0099999999939130232000108
10380ITABIRA                                                002170220193001201914:01MANOEL HERIBERTO CARLOS       GARAGISTA           01071993000006:0011:0012:4015:0001022019020320192017/201800         00000000                                             2198111225039130232000108
10380ITABIRA                                                020270220193001201914:01ADILSON DE SOUZA MORAES       PORTEIRO NOTURNO    01041996000022:0001:0002:0005:2001102018301020182017/201800         00000000                                             2899942383239130232000108
10380ITABIRA                                                020330220193001201914:01SINDOVAL MENDES DA SILVA      PORTEIRO CHEFE      01071999000006:0011:0012:4015:0011102018301020182017/201800         00000000                                             2198844738239130232000108
10380ITABIRA                                                020360220193001201914:01MARCONI ALEXANDRE ALVES       GARAGISTA           01052006000011:0015:0016:4020:0001052018300520182016/2017012017/201801042019                                             2198879887239130232000108
10380ITABIRA                                                020380220193001201914:01JOSE FLAVIO DE PAIVA          ZELADOR             01082007000111:0015:0016:4020:0003012019010220192017/201800         00000000                                             2196982487239130232000108
10380ITABIRA                                                020410220193001201914:01ANTONIO ALVES FARIAS          ZELADOR             04122010000109:0013:0014:0017:2011072018300720182016/2017012017/201801112019                                             2196993996239130232000108
10380ITABIRA                                                020430220193001201914:01ADRIANO DE AGUIAS DE SOUZA    ZELADOR             15072013010106:0011:0012:4015:0001092018200920182017/201800         00000000adrianoaguirhyan@gmail.com                   2197941502839130232000108
10382LEBLON                                                 001690220193001201914:01RINALDO GERMANO DA SILVA      PORTEIRO CHEFE      06041989000008:0012:0016:0019:2001092018300920182017/201800         00000000                                             2198940739606145209000120
10382LEBLON                                                 010760220193001201914:01JOAO PASCOAL VIANA            VIGIA NOTURNO       06031996000022:0001:0002:0005:2001022018020320182016/2017012017/201806022019                                             2196692560606145209000120
10382LEBLON                                                 010970220193001201914:01ELIELSON MERENCIO DE SOUSA    ZELADOR             01042018000007:0012:0013:0015:200000000000000000         00         00000000                                             2199350846406145209000120
10382LEBLON                                                 100970220193001201914:01JHONATAN DA SILVA COSTA       FAXINEIRO           06092012000007:0011:0012:0015:2001012019300120192017/201800         00000000costajhonatan257@hotmail.com                 2198944726606145209000120
10384AUGUSTO XAVIER DE LIMA                                 030380220193001201914:01GEOVANI FRANKLIN DE CARVALHO  PORTEIRO CHEFE      05062009010208:0012:0015:4019:0005022018060320182016/2017012017/201805052019giovaneriocopa@hotmail.com                   2197638416201764990000105
10384AUGUSTO XAVIER DE LIMA                                 030470220193001201914:01ADRIANO CAVALCANTE DA SILVA   VIGIA NOTURNO       01122017000019:0001:0003:0007:000000000000000000         012017/201801112019acavalcantedo7@gmail.com                     2198097691201764990000105
10384AUGUSTO XAVIER DE LIMA                                 030480220193001201914:01PEDRO HENRIQUE ALVES DE LIMA  ZELADOR             20082018010107:4011:0012:0016:000000000000000000         00         00000000pedrohenryalvez@gmail.com                    2196945588701764990000105
10384AUGUSTO XAVIER DE LIMA                                 030490220193001201914:01MANOEL AUGUSTO DA SILVA FILHO VIGIA NOTURNO       01102018000019:0001:0003:0007:000000000000000000         00         0000000099999999999999                               2196993593701764990000105
10391KEATS                                                  040260220193001201914:01MIGUEL FIGUEIREDO FERREIRA    GARAGISTA           01041997000106:0012:0013:0018:0001082018300820182017/201800         00000000                                             0000000000002718892000196
10391KEATS                                                  040490220193001201914:01JOSE RIBAMAR BOAES            PORTEIRO            01082000000006:0012:0013:0018:0001072018300720182016/2017012017/201801072019                                             2197922941602718892000196
10391KEATS                                                  050110220193001201914:01BARTOLOMEU COSTA DA SILVA     GARAGISTA           01012002000018:0001:0003:0006:0001122018301220182017/2017012018/201901122019                                             2197556570902718892000196
10391KEATS                                                  050360220193001201914:01MARCOS VENICIO MEDEIROS DE OLIPORTEIRO            04122006000118:0023:0001:0006:0011092018300920182016/2017012017/201801112019                                             2197400745802718892000196
10391KEATS                                                  050370220193001201914:01GILBERTO CONCEICAO DE ALMEIDA GARAGISTA           26022007000106:0012:0013:0018:0011032018300320182017/2018012018/201926012020                                             2199432951002718892000196
10391KEATS                                                  050380220193001201914:01SERGIO CABRAL DA SILVA        GARAGISTA           12032009010318:0001:0003:0006:0002012019310120192017/201800         00000000sergiocabral702@gmail.com                    2199514116902718892000196
10391KEATS                                                  050520220193001201914:01LINALDO LUCENA DA SILVA       FAXINEIRO           11012016010207:4012:0013:0016:0011022019020320192018/201900         00000000                                             2198952833302718892000196
